{
  "fileName": "BounceStakeSimple.sol",
  "contractName": "BounceStakeSimple",
  "source": "// SPDX-License-Identifier: MIT\n\npragma solidity ^0.6.0;\n\nimport \"@openzeppelin/contracts-ethereum-package/contracts/math/SafeMath.sol\";\nimport \"@openzeppelin/contracts-ethereum-package/contracts/token/ERC20/IERC20.sol\";\nimport \"@uniswap/v2-periphery/contracts/interfaces/IUniswapV2Router02.sol\";\nimport \"./Governable.sol\";\nimport \"./interfaces/IBounceAuctionToken.sol\";\n\nabstract contract BounceStakeSimpleV0 is Initializable {\n    using SafeMath for uint256;\n\n    address internal constant DeadAddress = 0x000000000000000000000000000000000000dEaD;\n\n    // team address\n    address payable public TeamAddress;     // v1.6.0 deprecated\n    // stake token address\n    address public StakeToken;              // v1.6.0 deprecated\n    // the total seconds the un-staking will last\n    uint32 public UnStakeSeconds;           // v1.6.0 deprecated\n\n    // total amount of staking\n    uint256 public totalStake;\n    // total amount of received reward\n    uint256 public totalReward;\n    // total amount of claimed reward\n    uint256 public totalClaimedReward;\n\n    // deprecated, index => amount of daily staking\n    mapping(uint32 => uint256) public dailyStake;\n    // deprecated, date index => amount of daily reward\n    mapping(uint32 => uint256) public dailyReward;\n    // deprecated, date index => amount of daily reward\n    mapping(uint32 => uint256) public dailyClaimedReward;\n\n    // account => amount of daily staking\n    mapping(address => uint256) public myTotalStake;\n    // deprecated, account => date index => if my reward is claimed\n    mapping(address => mapping(uint32 => bool)) public myRewardClaimed;\n\n    // account => sequence number => amount of un-staking\n    mapping(address => mapping(uint32 => uint256)) public myUnStake;\n    // account => sequence number => the end time in seconds of un-staking\n    mapping(address => mapping(uint32 => uint32)) public myUnStakeEndAt;\n    // address => array of sequence number\n    mapping(address => uint32[]) public myUnStakes;\n    // address => last time of claim reward\n    mapping(address => uint) public lastTimeOf;\n\n    event Staked (address sender, uint256 amount);\n    event UnStaked (address sender, uint256 amount);\n    event RewardClaimed (address sender, uint256 amount);\n    event Withdrawn (address sender, uint256 amount);\n\n    function depositReward() external payable {\n        totalReward = totalReward.add(msg.value);\n    }\n\n    function staking(uint256 amount) external {\n//        claimReward();\n\n        address sender = msg.sender;\n        require(amount > 0, \"amount is zero.\");\n\n        IERC20 _stakeToken = IERC20(getStakeToken());\n        _stakeToken.transferFrom(sender, address(this), amount);        // transfer amount of staking to contract\n        _stakeToken.approve(address(this), 0);                          // reset allowance to 0\n\n        myTotalStake[sender] = myTotalStake[sender].add(amount);        // increasing total amount of stake\n        totalStake = totalStake.add(amount);\n\n        emit Staked(sender, amount);\n    }\n\n    function unStaking(uint256 amount) public virtual {\n//        claimReward();\n\n        address sender = msg.sender;\n        require(amount > 0, \"amount is zero\");\n        require(totalStake >= amount, \"totalStake should larger than or equal to amount\");\n        require(myTotalStake[sender] >= amount, \"my stake should larger than or equal to amount\");\n\n        myTotalStake[sender] = myTotalStake[sender].sub(amount);        // decreasing total amount of stake\n        totalStake = totalStake.sub(amount);\n\n        IERC20(getStakeToken()).transfer(sender, amount);\n\n        emit UnStaked(sender, amount);\n    }\n\n    function withdraw() public {\n        revert(\"function withdraw is deprecated\");\n\n        address sender = msg.sender;\n\n        uint32 maxLength = uint32(myUnStakes[sender].length);\n        uint32[] memory removeIndexes = new uint32[](maxLength);\n        uint32 removeIndexCount = 0;\n        uint256 amount = 0;\n        for (uint32 i = 0; i < maxLength; i++) {\n            uint32 unStakeSN = myUnStakes[sender][i];\n            if (myUnStakeEndAt[sender][unStakeSN] <= now) {\n                amount = amount.add(myUnStake[sender][unStakeSN]);\n                delete myUnStake[sender][unStakeSN];\n                delete myUnStakeEndAt[sender][unStakeSN];\n                removeIndexes[removeIndexCount] = i;\n                removeIndexCount++;\n            }\n        }\n        // remove data\n        for (uint32 i = 0; i < removeIndexCount; i++) {\n            uint32 removeDateIndex = removeIndexes[i] - i;\n            myUnStakes[sender] = removeArray(myUnStakes[sender], removeDateIndex);\n        }\n\n        if (amount > 0) {\n            IERC20(getStakeToken()).transfer(sender, amount);\n        }\n\n        emit Withdrawn(sender, amount);\n    }\n\n    function claimRewardWithZeroSlippage() external {\n        claimReward(0);\n    }\n\n    // https://docs.uniswap.org/sdk/2.0.0/reference/trade#minimumamountout-since-204\n    // use Trade.minimumAmountOut() to get rewardAmountOutMin\n    function claimReward(uint rewardAmountOutMin) public {\n        checkMigration();\n\n        address payable sender = msg.sender;\n        uint256 reward = calculateReward(sender);\n        totalClaimedReward = totalClaimedReward.add(reward);\n\n        if (reward > 0) {\n            // burn 1/2 of reward\n            uint burned = reward.div(2);\n            // actual reward is 1/2 of origin reward\n            uint actualReward = reward.sub(burned);\n            if (burned > 0) {\n                // DO NOT BURN AUCTION\n                // swap(DeadAddress, burned);\n            }\n            if (actualReward > 0) {\n                swap(sender, actualReward, rewardAmountOutMin);\n            }\n        }\n\n        lastTimeOf[sender] = now;\n\n        emit RewardClaimed(sender, reward);\n    }\n\n    function swap(address target, uint amount, uint amountOutMin) internal {\n        IUniswapV2Router02 usi = IUniswapV2Router02(getUniSwapContract());\n        address[] memory path = getPath();\n        address to = target;\n        uint deadline = now.add(20 minutes);\n        usi.swapExactETHForTokens{value: amount}(amountOutMin, path, to, deadline);\n    }\n\n    uint constant MAX_SPAN = 30 days;\n\n    function calculateReward(address target) public view returns (uint256) {\n        uint span = now.sub(lastTimeOf[target]);\n        if(span > MAX_SPAN) {\n            span = MAX_SPAN;\n        }\n        if (totalStake == 0) {\n            return 0;\n        }\n        return address(this).balance.mul(myTotalStake[target]).div(totalStake).mul(span).div(MAX_SPAN);\n    }\n\n    function calculateWithdraw(address target) public view returns (uint256) {\n        uint256 amount = 0;\n        for (uint32 i = 0; i < myUnStakes[target].length; i++) {\n            uint32 sn = myUnStakes[target][i];\n            if (myUnStakeEndAt[target][sn] <= now) {\n                amount = amount.add(myUnStake[target][sn]);\n            }\n        }\n\n        return amount;\n    }\n\n    function calculateUnStake(address target) public view returns (uint256) {\n        return myTotalStake[target];\n    }\n\n    function removeArray(uint32[] storage array, uint32 index) private returns (uint32[] storage) {\n        require(index < array.length, \"index out of range.\");\n\n        if (index < array.length - 1) {\n            for (uint32 i = index; i < array.length - 1; i++){\n                array[i] = array[i + 1];\n            }\n        }\n        array.pop();\n\n        return array;\n    }\n\n    function currentDateIndex() public view returns (uint32) {\n        return uint32(now.div(1 days));\n    }\n\n    function prevDateIndex() private view returns (uint32) {\n        return currentDateIndex() - 1;\n    }\n\n    function getPath() internal view returns (address[] memory) {\n        address[] memory path = new address[](2);\n        path[0] = IUniswapV2Router02(getUniSwapContract()).WETH();\n        path[1] = getStakeToken();\n\n        return path;\n    }\n\n    function getStakeToken() public virtual view returns (address);\n\n    function getUniSwapContract() public virtual view returns (address);\n\n    function checkMigration() internal virtual;\n}\n\nabstract contract BounceStakeSimpleV1 is BounceStakeSimpleV0, Configurable {\n\n    bytes32 internal constant StakeTokenAddress =   bytes32(\"BounceSS::StakeTokenAddress\");\n    bytes32 internal constant UniSwapContract =     bytes32(\"BounceSS::UniSwapContract\");\n\n    function initialize(address _governor) public override {\n        require(msg.sender == governor || governor == address(0), \"invalid governor\");\n        governor = _governor;\n\n        // config[StakeTokenAddress] = uint(0xAbF690E2EbC6690c4Fdc303fc3eE0FBFEb1818eD);\t\t// Rinkeby\n        config[StakeTokenAddress] = uint(0x5bEaBAEBB3146685Dd74176f68a0721F91297D37);\n        config[UniSwapContract] = uint(0x7a250d5630B4cF539739dF2C5dAcb4c659F2488D);\n    }\n\n    function getStakeToken() public override view returns (address) {\n        return address(config[StakeTokenAddress]);\n    }\n\n    function getUniSwapContract() public override view returns (address) {\n        return address(config[UniSwapContract]);\n    }\n\n    function calculateRewardInBot(address target) external view returns (uint) {\n        uint amountIn = calculateReward(target);\n        if (amountIn == 0) return 0;\n        address[] memory path = getPath();\n        uint[] memory amounts = IUniswapV2Router02(getUniSwapContract()).getAmountsOut(amountIn, path);\n\n        return amounts[amounts.length - 1];\n    }\n}\n\n\nabstract contract BounceStakeSimpleV2 is BounceStakeSimpleV1 {\n    bytes32 internal constant _proposeID_\t\t\t\t\t= keccak256(abi.encodePacked(\"proposeID\"));             // 0x99dc3a530220d3acdde2a84b34121cdd471ff2f8dccc3741e66127d6838e963b\n    bytes32 internal constant _proposeStatus_\t\t\t\t= keccak256(abi.encodePacked(\"proposeStatus\"));         // 0x42d8f19c97ee5a0c020c3140075b07aa4275f3d8da0c4302c6d3f66e75958292\n    bytes32 internal constant _thresholdPropose_\t\t\t= \"thresholdPropose\";\n    bytes32 internal constant _proposer_                    = keccak256(abi.encodePacked(\"proposer\"));              // 0xae46c42ab0ce10908c1d765cf1591cc57b8ebf9b2bec1a45d8816fbb3e828f4a\n    bytes32 internal constant _proposeSubject_\t\t\t\t= keccak256(abi.encodePacked(\"proposeSubject\"));        // 0xe34aa96dfaf5d2a69bd46a7ed8b2a479243f1aaafdc6f53d2c650319bd5da927\n    bytes32 internal constant _proposeContent_\t\t\t\t= keccak256(abi.encodePacked(\"proposeContent\"));        // 0xee8e035a9446305db6958894217f8048ddfaa5ce462b8fec38b842a1b16b6f8f\n    bytes32 internal constant _spanLo_                      = \"spanLo\";\n    bytes32 internal constant _spanHi_                      = \"spanHi\";\n    bytes32 internal constant _timePropose_\t\t\t\t\t= keccak256(abi.encodePacked(\"timePropose\"));           // 0x639cf8e560160c1c1c5fe1e1f1822f9d5ee2f35a5e60ea9e5fadc1ed5c743ebc\n    bytes32 internal constant _proposeKey_\t\t\t\t\t= keccak256(abi.encodePacked(\"proposeKey\"));            // 0xd307d342b97f3c6a097998b749e30fe8855996166e3ae2bceab49ebeccf18b4c\n    bytes32 internal constant _proposeValue_\t\t\t\t= keccak256(abi.encodePacked(\"proposeValue\"));          // 0x3f030b1a7eb163da8b1e913ee5e33fb4deef527f176438de9bfdf702ae831e4b\n    bytes32 internal constant _proposes_\t\t\t\t\t= keccak256(abi.encodePacked(\"proposes\"));              // 0x04cbadf7a77c08e0721858126d70a777c8ba2bc58f9f7f02197176d3a97df210\n    bytes32 internal constant _proposesVoting_\t\t\t\t= keccak256(abi.encodePacked(\"proposesVoting\"));        // 0x35511cd217b773d22bd13f18a73f20a2e6a35dfa872947fa99526f38d8a5d8a5\n    bytes32 internal constant _votes_\t\t\t\t\t\t= keccak256(abi.encodePacked(\"votes\"));                 // 0xf2203813fc6277042a63750c3bf1830873c2d833ed7fc455dac19fa65a26c3dd\n    bytes32 internal constant _voteResultBase_\t\t\t\t= keccak256(abi.encodePacked(\"voteResultBase\"));        // 0x01e1cdf5586eb4173cf6a3260fc5bd4c8a06b085b2d7b0eadf25e6be3655ca45\n    bytes32 internal constant _divisorAbsent_\t\t\t\t= keccak256(abi.encodePacked(\"divisorAbsent\"));         // 0xcb5c2778adab8fd5772aae3cc1258d3b0ce253009be10d238142630fb95bd6cd\n\n    uint256 internal constant PROPOSE_STATUS_VOTING\t\t\t= uint256(bytes32(\"PROPOSE_STATUS_VOTING\"));\n    uint256 internal constant PROPOSE_STATUS_FAIL\t\t\t= uint256(bytes32(\"PROPOSE_STATUS_FAIL\"));\n    uint256 internal constant PROPOSE_STATUS_PASS\t\t\t= uint256(bytes32(\"PROPOSE_STATUS_PASS\"));\n\n    bytes32 internal constant VOTE_YES                      = \"VOTE_YES\";\n    bytes32 internal constant VOTE_NO                       = \"VOTE_NO\";\n    bytes32 internal constant VOTE_CANCEL                   = \"VOTE_CANCEL\";\n\n    mapping (bytes32 => string) internal configString;\n\n    function initialize() public governance virtual {\n        config[_thresholdPropose_] = 0.02 ether;        // 2%\n        config[_spanLo_] = 3 days;\n        config[_spanHi_] = 7 days;\n    }\n\n\tevent Propose(address indexed _proposer, bytes32 _proposeID, string _subject, string _content, uint _span, bytes32 _key, uint256 _value);\n    function propose(bytes32 _proposeID, string memory _subject, string memory _content, uint _span, bytes32 _key, uint256 _value) public virtual {\n\t\taddress sender = msg.sender;\n        require(myTotalStake[sender] * 1 ether >= totalStake * getConfig(_thresholdPropose_));\t//, \"Proponent has not enough BOT!\"\n\n        _proposeID = keccak256(abi.encodePacked(getConfig(_proposes_, 0x0).add(1)));\n        uint256 proposeID = uint256(_proposeID);\n        emit Propose(sender, bytes32(proposeID), _subject, _content, _span, _key, _value);\n\n        require(getConfig(_proposeStatus_, proposeID) == 0x0, \"Can't propose same proposeID again!\");\n        _setConfig(_proposeStatus_, proposeID, PROPOSE_STATUS_VOTING);\n\n        _setConfig(_proposer_, proposeID, uint(sender));\n        _setConfigString(_proposeSubject_, proposeID, _subject);\n        _setConfigString(_proposeContent_, proposeID, _content);\n\n        require(_span >= config[_spanLo_], 'Span is too short');\n        require(_span <= config[_spanHi_], 'Span is too long');\n        _setConfig(_timePropose_, proposeID, _span.add(now));\n\n        _setConfig(_proposeKey_, proposeID, uint(_key));\n        _setConfig(_proposeValue_, proposeID, _value);\n\n        _setConfig(_proposes_, proposeID, getConfig(_proposes_, 0x0));\t\t\t\t\t// join proposes list\n        _setConfig(_proposes_, 0x0, proposeID);\n        _setConfig(_proposesVoting_, proposeID, getConfig(_proposesVoting_, 0x0));\n        _setConfig(_proposesVoting_, 0x0, proposeID);\n\n        vote(_proposeID, VOTE_YES);\n    }\n\n    //0xd07ef206\n    function voteYes(bytes32 _proposeID) public {\n        vote(_proposeID, VOTE_YES);\n    }\n\n    //0x7bae981b\n    function voteNo(bytes32 _proposeID) public {\n        vote(_proposeID, VOTE_NO);\n    }\n\n    //0xf6b62166\n    function voteCancle(bytes32 _proposeID) public {\n        vote(_proposeID, VOTE_CANCEL);\n    }\n\n    //0xc7bc95c2\n    function getVotes(bytes32 _ID, bytes32 _vote) public view returns(uint256) {\n        return getConfig(_votes_, uint256(_ID^_vote));\n    }\n\n    event Vote(address indexed _holder, bytes32 indexed _ID, bytes32 _vote, uint256 _votes);\n    //0xeeaaf19d\n    function vote(bytes32 _ID, bytes32 _vote) public virtual {\n        uint256 status = getConfig(_proposeStatus_, uint256(_ID));\n        require(status == PROPOSE_STATUS_VOTING, \"Propose status is not VOTING\");\n\n        address _holder = msg.sender;\n        uint256 ID = uint256(_ID);\n        if(now <= getConfig(_timePropose_, ID)) {\n            uint256 staked = myTotalStake[_holder];\n            bytes32 voted = bytes32(getConfig(_votes_, uint(_holder)^uint(ID)));\n            uint256 ID_voted = uint256(_ID^voted);\n            if((voted == VOTE_YES || voted == VOTE_NO) && _vote == VOTE_CANCEL || voted ^ _vote == VOTE_YES ^ VOTE_NO) {\n                _setConfig(_votes_, ID_voted, getConfig(_votes_, ID_voted).sub(staked));\n            }\n            uint256 ID_vote = uint256(_ID^_vote);\n            if((voted == 0x0 || voted == VOTE_CANCEL) && (_vote == VOTE_YES || _vote == VOTE_NO) || voted ^ _vote == VOTE_YES ^ VOTE_NO) {\n                _setConfig(_votes_, ID_vote, getConfig(_votes_, ID_vote).add(staked));\n            }\n            _setConfig(_votes_, uint(_holder)^uint(ID), uint256(_vote));\n            emit Vote(_holder, _ID, _vote, staked);\n        } else {\n            emit Vote(_holder, _ID, _vote, 0);\n\n            uint256 prev = 0;\n            uint256 id = 0;\n            for(id = getConfig(_proposesVoting_, 0x0); id != ID && id != 0x0; (prev = id, id = getConfig(_proposesVoting_, id))) {\n            }\n            _setConfig(_proposesVoting_, prev, getConfig(_proposesVoting_, id));\n\n            _setConfig(_voteResultBase_, uint256(_ID), totalStake);\n\n            if(voteResult(_ID))\n            setConfig_(_proposeID_, bytes32(getConfig(_proposeKey_, ID)), getConfig(_proposeValue_, ID));\n        }\n    }\n\n    event VoteResult(bytes32 indexed _ID, bytes32 indexed _proposeID, bool result, uint256 _yes, uint256 _no, uint256 _base);\n    function voteResult(bytes32 _ID) internal returns(bool result) {\n        uint256 yes = getVotes(_ID, VOTE_YES);\n        uint256 no = getVotes(_ID, VOTE_NO);\n        uint256 base = totalStake;\n        uint256 divisor = getConfig(_divisorAbsent_);\n        if(divisor == 0)\n            divisor = 6 ether;\n        result = yes * divisor + yes + no > no * divisor + base;\t\t// pass = yes - no - absent/6 > 0\n        _setConfig(_proposeStatus_, uint256(_ID), result ? PROPOSE_STATUS_PASS : PROPOSE_STATUS_FAIL);\n        bytes32 projectID = bytes32(getConfig(_proposeID_, uint256(_ID)));\n        emit VoteResult(_ID, projectID, result, yes, no, base);\n    }\n\n    event Config(bytes32 indexed _ID, bytes32 indexed _key, uint256 _value);\n    function setConfig_(bytes32 _ID, bytes32 _key, uint256 _value) internal {\n        if(_key == 0x0)\n            return;\n        _setConfig(_key, _value);\n        emit Config(_ID, _key, _value);\n    }\n\n    function getConfigString(bytes32 key) public view returns (string memory) {\n        return configString[key];\n    }\n    function getConfigString(bytes32 key, uint index) public view returns (string memory) {\n        return configString[bytes32(uint(key) ^ index)];\n    }\n    function _setConfigString(bytes32 key, string memory value) internal {\n        configString[key] = value;\n    }\n    function _setConfigString(bytes32 key, uint index, string memory value) internal {\n        _setConfigString(bytes32(uint(key) ^ index), value);\n    }\n    function setConfigString(bytes32 key, string memory value) external governance {\n        _setConfigString(key, value);\n    }\n    function setConfigString(bytes32 key, uint index, string memory value) external governance {\n        _setConfigString(bytes32(uint(key) ^ index), value);\n    }\n}\n\nabstract contract BounceStakeSimpleV3 is BounceStakeSimpleV2 {\n\n    using SafeMath for uint256;\n\n    bytes32 internal constant _govRewardPerDay_             = bytes32(\"govRewardPerDay\");\n    bytes32 internal constant _proposeRewardPercent_        = bytes32(\"proposeRewardPercent\");\n    bytes32 internal constant _voteRewardPercent_           = bytes32(\"voteRewardPercent\");\n    bytes32 internal constant _bounce_                      = bytes32(\"bounceAddress\");\n\n    uint256 public proposeLastTime;\n    uint256 public voteLastTime;\n    uint256 public proposeEma;\n    uint256 public voteEma;\n\n    // account => amount of governance reward\n    mapping(address => uint256) public myGovernaceWillReward;\n\n    // id=>address=>bool\n    mapping(bytes32 => mapping(address =>bool)) public myGovernaceVote;\n    mapping(bytes32 => mapping(address =>bool)) public myGovernacePropose;\n\n    //address => time\n    mapping(address => uint256) public myStakeEndTime;\n\n    bytes32 internal constant _maxGovReward_ = keccak256(abi.encodePacked(\"maxGovernanceReward\"));  //  0x6ab8a731401008225ce8d89a324608b5c6a7aafc985c6a4fc52c933726448dcd\n\n    event GovRewardClaimed (address sender, uint256 amount);\n\n    function initializeV1(address bounce) public governance virtual {\n        setConfig(_govRewardPerDay_,address(0),0 ether);       //   0 bot\n        setConfig(_proposeRewardPercent_,address(0),uint(2));  //   2%\n        setConfig(_voteRewardPercent_,address(0),uint(98));    //   98%\n        setConfig(_bounce_,address(0),uint(bounce));\n        proposeLastTime = now;\n        voteLastTime = now;\n        proposeEma = uint256(50000 ether*2/100 ).div(86400);\n        voteEma = uint256(50000 ether*98/100).div(86400);\n    }\n\n    function initializeV2() public governance {\n        _setConfig(_maxGovReward_ ,1 ether / 2);\n    }\n\n\tfunction getGovReward() public virtual view returns (uint256){\n\t   return myGovernaceWillReward[msg.sender];\n\t}\n\n\tfunction getGovReward(address addr) public view virtual returns (uint256){\n\t   return myGovernaceWillReward[addr];\n\t}\n\n    function claimGovReward() public {\n        address payable sender = msg.sender;\n        uint256 reward = myGovernaceWillReward[sender];\n        if (reward > 0) {\n            uint256 govRewardPerDay = getConfig(_govRewardPerDay_,address(0));\n            if (reward > govRewardPerDay){\n                reward = govRewardPerDay;\n            }\n            address bounceAddress = address(getConfig(_bounce_,0));\n            IERC20(getStakeToken()).transferFrom(bounceAddress,sender,reward);\n            myGovernaceWillReward[msg.sender] = 0;\n            emit GovRewardClaimed(sender, reward);\n        }\n\n    }\n\n\n    function vote(bytes32 _ID, bytes32 _vote) public override virtual{\n        super.vote(_ID,_vote);\n        if(myStakeEndTime[msg.sender] < getConfig(_timePropose_, uint256(_ID))) {\n            myStakeEndTime[msg.sender] = getConfig(_timePropose_, uint256(_ID));\n        }\n        if (myGovernaceVote[_ID][msg.sender])\n            return;\n        require(myTotalStake[msg.sender]  > 0,\"please stake first\" );\n        myGovernaceVote[_ID][msg.sender]=true;\n        uint256 staked = myTotalStake[msg.sender];\n        uint256 rVoteReward;\n        uint256 voteEmaT = calcVoteEma(staked);\n        rVoteReward = calcVoteReward(staked);\n        if (rVoteReward > 0)\n            myGovernaceWillReward[msg.sender] = myGovernaceWillReward[msg.sender].add(rVoteReward);\n        if (myGovernaceWillReward[msg.sender]>getConfig(_maxGovReward_))\n            myGovernaceWillReward[msg.sender] = getConfig(_maxGovReward_);\n        voteLastTime = now;\n        voteEma = voteEmaT;\n    }\n    function propose(bytes32 _proposeID, string memory _subject, string memory _content, uint _span, bytes32 _key, uint256 _value) public override{\n        super.propose(_proposeID,_subject,_content,_span,_key,_value);\n        if(myStakeEndTime[msg.sender] < getConfig(_timePropose_, uint256(_proposeID))) {\n            myStakeEndTime[msg.sender] = getConfig(_timePropose_, uint256(_proposeID));\n        }\n        if (myGovernacePropose[_proposeID][msg.sender])\n            return;\n        myGovernacePropose[_proposeID][msg.sender] = true;\n        uint256 staked = myTotalStake[msg.sender];\n        uint256 rProposeReward;\n        uint256 proposeEmaT = calcProposeEma(staked);\n        rProposeReward = calcProposeReward(staked);\n        if (rProposeReward > 0)\n           myGovernaceWillReward[msg.sender] = myGovernaceWillReward[msg.sender].add(rProposeReward);\n        if (myGovernaceWillReward[msg.sender]>getConfig(_maxGovReward_))\n            myGovernaceWillReward[msg.sender] = getConfig(_maxGovReward_);\n        proposeLastTime=now;\n        proposeEma = proposeEmaT;\n    }\n\n    function calcTimedQuota(uint256 _rest, uint256 _full, uint256 _timespan, uint256 _period) public pure virtual returns (uint256) {\n        if(_timespan > _period)\n            _timespan = _period;\n        return ((_rest.mul(_period.sub(_timespan))).add(_timespan.mul(_full))).div(_period);\n    }\n\n\n    function calcEma(uint256 _emaPre, uint256 _value, uint32 _timeSpan, uint256 _period) public view virtual returns(uint256) {\n        if(_timeSpan > 0) {\n            return calcTimedQuota(_emaPre, _value.div(_timeSpan), _timeSpan, _period);\n        }\n        return _emaPre + _value.mul(11574141054252).div(1 ether);   //ln(86400/86399)\n        //return _emaPre + (safeMul(_value, ln(_period, _period-1)) >> MAX_PRECISION) / 1 ether;\n    }\n\n\n    function calcVoteEma(uint amount) public view virtual returns (uint256){\n        uint32 timeSpan = uint32(now.sub(voteLastTime));\n        return calcEma(voteEma,amount,timeSpan,1 days);\n    }\n\n    function calcProposeEma(uint amount) public view virtual returns (uint256){\n        uint32 timeSpan = uint32(now.sub(proposeLastTime));\n    \treturn calcEma(proposeEma,amount,timeSpan,1 days);\n    }\n\n\n    function calcVoteReward(uint amount) public view virtual returns (uint256){\n\t    uint32 timeSpan = uint32(now.sub(voteLastTime));\n        uint256 rEma = calcEma(voteEma,amount,timeSpan,1 days);\n        uint256 govRewardPerDay = uint256(getConfig(_govRewardPerDay_,address(0)));\n        uint256 voteRewardPercent = uint256(getConfig(_voteRewardPercent_,address(0)));\n        uint256 voteQuotaPerDay = govRewardPerDay.mul(voteRewardPercent).div(100);\n        if (amount >= rEma.mul(1 days))\n            return voteQuotaPerDay;\n        else\n           return voteQuotaPerDay.mul(amount).div(rEma.mul(1 days));\n    }\n\n    function calcProposeReward(uint amount)  public view virtual returns (uint256){\n        uint32 timeSpan = uint32(now.sub(proposeLastTime));\n\t    uint256 rEma = calcEma(proposeEma,amount,timeSpan,1 days);\n        uint256 govRewardPerDay = uint256(getConfig(_govRewardPerDay_,address(0)));\n        uint256 proposeRewardPercent = uint256(getConfig(_proposeRewardPercent_,address(0)));\n        uint256 proposeQuotaPerDay = govRewardPerDay.mul(proposeRewardPercent).div(100);\n        if (amount>=rEma.mul(1 days))\n            return  proposeQuotaPerDay;\n        else\n            return proposeQuotaPerDay.mul(amount).div(rEma.mul(1 days));\n    }\n\n    function unStaking(uint256 amount) public override virtual {\n        require(now>=myStakeEndTime[msg.sender],\"Staking not due\");\n        super.unStaking(amount);\n    }\n\n    function transferFee(address payable to, uint amount) public governance {\n        to.transfer(amount);\n    }\n}\n\ncontract BounceStakeSimple is BounceStakeSimpleV3 {\n\n    // account => whether or not account has exchanged its BOT token to AUCTION token\n    mapping(address => bool) public exchanged;\n    // whether or not function migrate() has been executed\n    bool public migrated;\n\n    event Exchanged(address indexed sender, uint256 botAmount, uint256 auctionAmount);\n\n    function migrate(address auctionTokenAddress) public {\n        require(!migrated, \"migrated\");\n        migrated = true;\n        uint botAmount = IERC20(getStakeToken()).balanceOf(address(this)); // BOT address\n        IERC20(getStakeToken()).approve(auctionTokenAddress, botAmount); // approve auction address\n        config[StakeTokenAddress] = uint(auctionTokenAddress); // Auction address\n        IBounceAuctionToken(getStakeToken()).swap(botAmount);\n        totalStake = totalStake.mul(100);\n        totalClaimedReward = totalClaimedReward.mul(100);\n    }\n\n    function checkMigration() internal override {\n        if (hasMigrated() && !hasExchanged(msg.sender)) {\n            uint botAmount = myTotalStake[msg.sender];\n            uint auctionAmount = botAmount.mul(100);\n            setExchanged(msg.sender, botAmount, auctionAmount);\n            myTotalStake[msg.sender] = auctionAmount;\n        }\n    }\n\n    function setExchanged(address target, uint256 botAmount, uint256 auctionAmount) internal {\n        exchanged[target] = true;\n        emit Exchanged(target, botAmount, auctionAmount);\n    }\n\n    function hasExchanged(address target) public view returns (bool) {\n        return exchanged[target];\n    }\n\n    function hasMigrated() public view returns (bool) {\n        return migrated;\n    }\n}\n",
  "sourcePath": "contracts/BounceStakeSimple.sol",
  "abi": [
    {
      "anonymous": false,
      "inputs": [
        {
          "indexed": true,
          "internalType": "bytes32",
          "name": "_ID",
          "type": "bytes32"
        },
        {
          "indexed": true,
          "internalType": "bytes32",
          "name": "_key",
          "type": "bytes32"
        },
        {
          "indexed": false,
          "internalType": "uint256",
          "name": "_value",
          "type": "uint256"
        }
      ],
      "name": "Config",
      "type": "event"
    },
    {
      "anonymous": false,
      "inputs": [
        {
          "indexed": true,
          "internalType": "address",
          "name": "sender",
          "type": "address"
        },
        {
          "indexed": false,
          "internalType": "uint256",
          "name": "botAmount",
          "type": "uint256"
        },
        {
          "indexed": false,
          "internalType": "uint256",
          "name": "auctionAmount",
          "type": "uint256"
        }
      ],
      "name": "Exchanged",
      "type": "event"
    },
    {
      "anonymous": false,
      "inputs": [
        {
          "indexed": false,
          "internalType": "address",
          "name": "sender",
          "type": "address"
        },
        {
          "indexed": false,
          "internalType": "uint256",
          "name": "amount",
          "type": "uint256"
        }
      ],
      "name": "GovRewardClaimed",
      "type": "event"
    },
    {
      "anonymous": false,
      "inputs": [
        {
          "indexed": true,
          "internalType": "address",
          "name": "previousGovernor",
          "type": "address"
        },
        {
          "indexed": true,
          "internalType": "address",
          "name": "newGovernor",
          "type": "address"
        }
      ],
      "name": "GovernorshipTransferred",
      "type": "event"
    },
    {
      "anonymous": false,
      "inputs": [
        {
          "indexed": true,
          "internalType": "address",
          "name": "_proposer",
          "type": "address"
        },
        {
          "indexed": false,
          "internalType": "bytes32",
          "name": "_proposeID",
          "type": "bytes32"
        },
        {
          "indexed": false,
          "internalType": "string",
          "name": "_subject",
          "type": "string"
        },
        {
          "indexed": false,
          "internalType": "string",
          "name": "_content",
          "type": "string"
        },
        {
          "indexed": false,
          "internalType": "uint256",
          "name": "_span",
          "type": "uint256"
        },
        {
          "indexed": false,
          "internalType": "bytes32",
          "name": "_key",
          "type": "bytes32"
        },
        {
          "indexed": false,
          "internalType": "uint256",
          "name": "_value",
          "type": "uint256"
        }
      ],
      "name": "Propose",
      "type": "event"
    },
    {
      "anonymous": false,
      "inputs": [
        {
          "indexed": false,
          "internalType": "address",
          "name": "sender",
          "type": "address"
        },
        {
          "indexed": false,
          "internalType": "uint256",
          "name": "amount",
          "type": "uint256"
        }
      ],
      "name": "RewardClaimed",
      "type": "event"
    },
    {
      "anonymous": false,
      "inputs": [
        {
          "indexed": false,
          "internalType": "address",
          "name": "sender",
          "type": "address"
        },
        {
          "indexed": false,
          "internalType": "uint256",
          "name": "amount",
          "type": "uint256"
        }
      ],
      "name": "Staked",
      "type": "event"
    },
    {
      "anonymous": false,
      "inputs": [
        {
          "indexed": false,
          "internalType": "address",
          "name": "sender",
          "type": "address"
        },
        {
          "indexed": false,
          "internalType": "uint256",
          "name": "amount",
          "type": "uint256"
        }
      ],
      "name": "UnStaked",
      "type": "event"
    },
    {
      "anonymous": false,
      "inputs": [
        {
          "indexed": true,
          "internalType": "address",
          "name": "_holder",
          "type": "address"
        },
        {
          "indexed": true,
          "internalType": "bytes32",
          "name": "_ID",
          "type": "bytes32"
        },
        {
          "indexed": false,
          "internalType": "bytes32",
          "name": "_vote",
          "type": "bytes32"
        },
        {
          "indexed": false,
          "internalType": "uint256",
          "name": "_votes",
          "type": "uint256"
        }
      ],
      "name": "Vote",
      "type": "event"
    },
    {
      "anonymous": false,
      "inputs": [
        {
          "indexed": true,
          "internalType": "bytes32",
          "name": "_ID",
          "type": "bytes32"
        },
        {
          "indexed": true,
          "internalType": "bytes32",
          "name": "_proposeID",
          "type": "bytes32"
        },
        {
          "indexed": false,
          "internalType": "bool",
          "name": "result",
          "type": "bool"
        },
        {
          "indexed": false,
          "internalType": "uint256",
          "name": "_yes",
          "type": "uint256"
        },
        {
          "indexed": false,
          "internalType": "uint256",
          "name": "_no",
          "type": "uint256"
        },
        {
          "indexed": false,
          "internalType": "uint256",
          "name": "_base",
          "type": "uint256"
        }
      ],
      "name": "VoteResult",
      "type": "event"
    },
    {
      "anonymous": false,
      "inputs": [
        {
          "indexed": false,
          "internalType": "address",
          "name": "sender",
          "type": "address"
        },
        {
          "indexed": false,
          "internalType": "uint256",
          "name": "amount",
          "type": "uint256"
        }
      ],
      "name": "Withdrawn",
      "type": "event"
    },
    {
      "inputs": [],
      "name": "StakeToken",
      "outputs": [
        {
          "internalType": "address",
          "name": "",
          "type": "address"
        }
      ],
      "stateMutability": "view",
      "type": "function"
    },
    {
      "inputs": [],
      "name": "TeamAddress",
      "outputs": [
        {
          "internalType": "address payable",
          "name": "",
          "type": "address"
        }
      ],
      "stateMutability": "view",
      "type": "function"
    },
    {
      "inputs": [],
      "name": "UnStakeSeconds",
      "outputs": [
        {
          "internalType": "uint32",
          "name": "",
          "type": "uint32"
        }
      ],
      "stateMutability": "view",
      "type": "function"
    },
    {
      "inputs": [
        {
          "internalType": "uint256",
          "name": "_emaPre",
          "type": "uint256"
        },
        {
          "internalType": "uint256",
          "name": "_value",
          "type": "uint256"
        },
        {
          "internalType": "uint32",
          "name": "_timeSpan",
          "type": "uint32"
        },
        {
          "internalType": "uint256",
          "name": "_period",
          "type": "uint256"
        }
      ],
      "name": "calcEma",
      "outputs": [
        {
          "internalType": "uint256",
          "name": "",
          "type": "uint256"
        }
      ],
      "stateMutability": "view",
      "type": "function"
    },
    {
      "inputs": [
        {
          "internalType": "uint256",
          "name": "amount",
          "type": "uint256"
        }
      ],
      "name": "calcProposeEma",
      "outputs": [
        {
          "internalType": "uint256",
          "name": "",
          "type": "uint256"
        }
      ],
      "stateMutability": "view",
      "type": "function"
    },
    {
      "inputs": [
        {
          "internalType": "uint256",
          "name": "amount",
          "type": "uint256"
        }
      ],
      "name": "calcProposeReward",
      "outputs": [
        {
          "internalType": "uint256",
          "name": "",
          "type": "uint256"
        }
      ],
      "stateMutability": "view",
      "type": "function"
    },
    {
      "inputs": [
        {
          "internalType": "uint256",
          "name": "_rest",
          "type": "uint256"
        },
        {
          "internalType": "uint256",
          "name": "_full",
          "type": "uint256"
        },
        {
          "internalType": "uint256",
          "name": "_timespan",
          "type": "uint256"
        },
        {
          "internalType": "uint256",
          "name": "_period",
          "type": "uint256"
        }
      ],
      "name": "calcTimedQuota",
      "outputs": [
        {
          "internalType": "uint256",
          "name": "",
          "type": "uint256"
        }
      ],
      "stateMutability": "pure",
      "type": "function"
    },
    {
      "inputs": [
        {
          "internalType": "uint256",
          "name": "amount",
          "type": "uint256"
        }
      ],
      "name": "calcVoteEma",
      "outputs": [
        {
          "internalType": "uint256",
          "name": "",
          "type": "uint256"
        }
      ],
      "stateMutability": "view",
      "type": "function"
    },
    {
      "inputs": [
        {
          "internalType": "uint256",
          "name": "amount",
          "type": "uint256"
        }
      ],
      "name": "calcVoteReward",
      "outputs": [
        {
          "internalType": "uint256",
          "name": "",
          "type": "uint256"
        }
      ],
      "stateMutability": "view",
      "type": "function"
    },
    {
      "inputs": [
        {
          "internalType": "address",
          "name": "target",
          "type": "address"
        }
      ],
      "name": "calculateReward",
      "outputs": [
        {
          "internalType": "uint256",
          "name": "",
          "type": "uint256"
        }
      ],
      "stateMutability": "view",
      "type": "function"
    },
    {
      "inputs": [
        {
          "internalType": "address",
          "name": "target",
          "type": "address"
        }
      ],
      "name": "calculateRewardInBot",
      "outputs": [
        {
          "internalType": "uint256",
          "name": "",
          "type": "uint256"
        }
      ],
      "stateMutability": "view",
      "type": "function"
    },
    {
      "inputs": [
        {
          "internalType": "address",
          "name": "target",
          "type": "address"
        }
      ],
      "name": "calculateUnStake",
      "outputs": [
        {
          "internalType": "uint256",
          "name": "",
          "type": "uint256"
        }
      ],
      "stateMutability": "view",
      "type": "function"
    },
    {
      "inputs": [
        {
          "internalType": "address",
          "name": "target",
          "type": "address"
        }
      ],
      "name": "calculateWithdraw",
      "outputs": [
        {
          "internalType": "uint256",
          "name": "",
          "type": "uint256"
        }
      ],
      "stateMutability": "view",
      "type": "function"
    },
    {
      "inputs": [],
      "name": "claimGovReward",
      "outputs": [],
      "stateMutability": "nonpayable",
      "type": "function"
    },
    {
      "inputs": [
        {
          "internalType": "uint256",
          "name": "rewardAmountOutMin",
          "type": "uint256"
        }
      ],
      "name": "claimReward",
      "outputs": [],
      "stateMutability": "nonpayable",
      "type": "function"
    },
    {
      "inputs": [],
      "name": "claimRewardWithZeroSlippage",
      "outputs": [],
      "stateMutability": "nonpayable",
      "type": "function"
    },
    {
      "inputs": [],
      "name": "currentDateIndex",
      "outputs": [
        {
          "internalType": "uint32",
          "name": "",
          "type": "uint32"
        }
      ],
      "stateMutability": "view",
      "type": "function"
    },
    {
      "inputs": [
        {
          "internalType": "uint32",
          "name": "",
          "type": "uint32"
        }
      ],
      "name": "dailyClaimedReward",
      "outputs": [
        {
          "internalType": "uint256",
          "name": "",
          "type": "uint256"
        }
      ],
      "stateMutability": "view",
      "type": "function"
    },
    {
      "inputs": [
        {
          "internalType": "uint32",
          "name": "",
          "type": "uint32"
        }
      ],
      "name": "dailyReward",
      "outputs": [
        {
          "internalType": "uint256",
          "name": "",
          "type": "uint256"
        }
      ],
      "stateMutability": "view",
      "type": "function"
    },
    {
      "inputs": [
        {
          "internalType": "uint32",
          "name": "",
          "type": "uint32"
        }
      ],
      "name": "dailyStake",
      "outputs": [
        {
          "internalType": "uint256",
          "name": "",
          "type": "uint256"
        }
      ],
      "stateMutability": "view",
      "type": "function"
    },
    {
      "inputs": [],
      "name": "depositReward",
      "outputs": [],
      "stateMutability": "payable",
      "type": "function"
    },
    {
      "inputs": [
        {
          "internalType": "address",
          "name": "",
          "type": "address"
        }
      ],
      "name": "exchanged",
      "outputs": [
        {
          "internalType": "bool",
          "name": "",
          "type": "bool"
        }
      ],
      "stateMutability": "view",
      "type": "function"
    },
    {
      "inputs": [
        {
          "internalType": "bytes32",
          "name": "key",
          "type": "bytes32"
        },
        {
          "internalType": "address",
          "name": "addr",
          "type": "address"
        }
      ],
      "name": "getConfig",
      "outputs": [
        {
          "internalType": "uint256",
          "name": "",
          "type": "uint256"
        }
      ],
      "stateMutability": "view",
      "type": "function"
    },
    {
      "inputs": [
        {
          "internalType": "bytes32",
          "name": "key",
          "type": "bytes32"
        }
      ],
      "name": "getConfig",
      "outputs": [
        {
          "internalType": "uint256",
          "name": "",
          "type": "uint256"
        }
      ],
      "stateMutability": "view",
      "type": "function"
    },
    {
      "inputs": [
        {
          "internalType": "bytes32",
          "name": "key",
          "type": "bytes32"
        },
        {
          "internalType": "uint256",
          "name": "index",
          "type": "uint256"
        }
      ],
      "name": "getConfig",
      "outputs": [
        {
          "internalType": "uint256",
          "name": "",
          "type": "uint256"
        }
      ],
      "stateMutability": "view",
      "type": "function"
    },
    {
      "inputs": [
        {
          "internalType": "bytes32",
          "name": "key",
          "type": "bytes32"
        },
        {
          "internalType": "uint256",
          "name": "index",
          "type": "uint256"
        }
      ],
      "name": "getConfigString",
      "outputs": [
        {
          "internalType": "string",
          "name": "",
          "type": "string"
        }
      ],
      "stateMutability": "view",
      "type": "function"
    },
    {
      "inputs": [
        {
          "internalType": "bytes32",
          "name": "key",
          "type": "bytes32"
        }
      ],
      "name": "getConfigString",
      "outputs": [
        {
          "internalType": "string",
          "name": "",
          "type": "string"
        }
      ],
      "stateMutability": "view",
      "type": "function"
    },
    {
      "inputs": [
        {
          "internalType": "address",
          "name": "addr",
          "type": "address"
        }
      ],
      "name": "getGovReward",
      "outputs": [
        {
          "internalType": "uint256",
          "name": "",
          "type": "uint256"
        }
      ],
      "stateMutability": "view",
      "type": "function"
    },
    {
      "inputs": [],
      "name": "getGovReward",
      "outputs": [
        {
          "internalType": "uint256",
          "name": "",
          "type": "uint256"
        }
      ],
      "stateMutability": "view",
      "type": "function"
    },
    {
      "inputs": [],
      "name": "getStakeToken",
      "outputs": [
        {
          "internalType": "address",
          "name": "",
          "type": "address"
        }
      ],
      "stateMutability": "view",
      "type": "function"
    },
    {
      "inputs": [],
      "name": "getUniSwapContract",
      "outputs": [
        {
          "internalType": "address",
          "name": "",
          "type": "address"
        }
      ],
      "stateMutability": "view",
      "type": "function"
    },
    {
      "inputs": [
        {
          "internalType": "bytes32",
          "name": "_ID",
          "type": "bytes32"
        },
        {
          "internalType": "bytes32",
          "name": "_vote",
          "type": "bytes32"
        }
      ],
      "name": "getVotes",
      "outputs": [
        {
          "internalType": "uint256",
          "name": "",
          "type": "uint256"
        }
      ],
      "stateMutability": "view",
      "type": "function"
    },
    {
      "inputs": [],
      "name": "governor",
      "outputs": [
        {
          "internalType": "address",
          "name": "",
          "type": "address"
        }
      ],
      "stateMutability": "view",
      "type": "function"
    },
    {
      "inputs": [
        {
          "internalType": "address",
          "name": "target",
          "type": "address"
        }
      ],
      "name": "hasExchanged",
      "outputs": [
        {
          "internalType": "bool",
          "name": "",
          "type": "bool"
        }
      ],
      "stateMutability": "view",
      "type": "function"
    },
    {
      "inputs": [],
      "name": "hasMigrated",
      "outputs": [
        {
          "internalType": "bool",
          "name": "",
          "type": "bool"
        }
      ],
      "stateMutability": "view",
      "type": "function"
    },
    {
      "inputs": [],
      "name": "initialize",
      "outputs": [],
      "stateMutability": "nonpayable",
      "type": "function"
    },
    {
      "inputs": [
        {
          "internalType": "address",
          "name": "_governor",
          "type": "address"
        }
      ],
      "name": "initialize",
      "outputs": [],
      "stateMutability": "nonpayable",
      "type": "function"
    },
    {
      "inputs": [
        {
          "internalType": "address",
          "name": "bounce",
          "type": "address"
        }
      ],
      "name": "initializeV1",
      "outputs": [],
      "stateMutability": "nonpayable",
      "type": "function"
    },
    {
      "inputs": [],
      "name": "initializeV2",
      "outputs": [],
      "stateMutability": "nonpayable",
      "type": "function"
    },
    {
      "inputs": [
        {
          "internalType": "address",
          "name": "",
          "type": "address"
        }
      ],
      "name": "lastTimeOf",
      "outputs": [
        {
          "internalType": "uint256",
          "name": "",
          "type": "uint256"
        }
      ],
      "stateMutability": "view",
      "type": "function"
    },
    {
      "inputs": [
        {
          "internalType": "address",
          "name": "auctionTokenAddress",
          "type": "address"
        }
      ],
      "name": "migrate",
      "outputs": [],
      "stateMutability": "nonpayable",
      "type": "function"
    },
    {
      "inputs": [],
      "name": "migrated",
      "outputs": [
        {
          "internalType": "bool",
          "name": "",
          "type": "bool"
        }
      ],
      "stateMutability": "view",
      "type": "function"
    },
    {
      "inputs": [
        {
          "internalType": "bytes32",
          "name": "",
          "type": "bytes32"
        },
        {
          "internalType": "address",
          "name": "",
          "type": "address"
        }
      ],
      "name": "myGovernacePropose",
      "outputs": [
        {
          "internalType": "bool",
          "name": "",
          "type": "bool"
        }
      ],
      "stateMutability": "view",
      "type": "function"
    },
    {
      "inputs": [
        {
          "internalType": "bytes32",
          "name": "",
          "type": "bytes32"
        },
        {
          "internalType": "address",
          "name": "",
          "type": "address"
        }
      ],
      "name": "myGovernaceVote",
      "outputs": [
        {
          "internalType": "bool",
          "name": "",
          "type": "bool"
        }
      ],
      "stateMutability": "view",
      "type": "function"
    },
    {
      "inputs": [
        {
          "internalType": "address",
          "name": "",
          "type": "address"
        }
      ],
      "name": "myGovernaceWillReward",
      "outputs": [
        {
          "internalType": "uint256",
          "name": "",
          "type": "uint256"
        }
      ],
      "stateMutability": "view",
      "type": "function"
    },
    {
      "inputs": [
        {
          "internalType": "address",
          "name": "",
          "type": "address"
        },
        {
          "internalType": "uint32",
          "name": "",
          "type": "uint32"
        }
      ],
      "name": "myRewardClaimed",
      "outputs": [
        {
          "internalType": "bool",
          "name": "",
          "type": "bool"
        }
      ],
      "stateMutability": "view",
      "type": "function"
    },
    {
      "inputs": [
        {
          "internalType": "address",
          "name": "",
          "type": "address"
        }
      ],
      "name": "myStakeEndTime",
      "outputs": [
        {
          "internalType": "uint256",
          "name": "",
          "type": "uint256"
        }
      ],
      "stateMutability": "view",
      "type": "function"
    },
    {
      "inputs": [
        {
          "internalType": "address",
          "name": "",
          "type": "address"
        }
      ],
      "name": "myTotalStake",
      "outputs": [
        {
          "internalType": "uint256",
          "name": "",
          "type": "uint256"
        }
      ],
      "stateMutability": "view",
      "type": "function"
    },
    {
      "inputs": [
        {
          "internalType": "address",
          "name": "",
          "type": "address"
        },
        {
          "internalType": "uint32",
          "name": "",
          "type": "uint32"
        }
      ],
      "name": "myUnStake",
      "outputs": [
        {
          "internalType": "uint256",
          "name": "",
          "type": "uint256"
        }
      ],
      "stateMutability": "view",
      "type": "function"
    },
    {
      "inputs": [
        {
          "internalType": "address",
          "name": "",
          "type": "address"
        },
        {
          "internalType": "uint32",
          "name": "",
          "type": "uint32"
        }
      ],
      "name": "myUnStakeEndAt",
      "outputs": [
        {
          "internalType": "uint32",
          "name": "",
          "type": "uint32"
        }
      ],
      "stateMutability": "view",
      "type": "function"
    },
    {
      "inputs": [
        {
          "internalType": "address",
          "name": "",
          "type": "address"
        },
        {
          "internalType": "uint256",
          "name": "",
          "type": "uint256"
        }
      ],
      "name": "myUnStakes",
      "outputs": [
        {
          "internalType": "uint32",
          "name": "",
          "type": "uint32"
        }
      ],
      "stateMutability": "view",
      "type": "function"
    },
    {
      "inputs": [
        {
          "internalType": "bytes32",
          "name": "_proposeID",
          "type": "bytes32"
        },
        {
          "internalType": "string",
          "name": "_subject",
          "type": "string"
        },
        {
          "internalType": "string",
          "name": "_content",
          "type": "string"
        },
        {
          "internalType": "uint256",
          "name": "_span",
          "type": "uint256"
        },
        {
          "internalType": "bytes32",
          "name": "_key",
          "type": "bytes32"
        },
        {
          "internalType": "uint256",
          "name": "_value",
          "type": "uint256"
        }
      ],
      "name": "propose",
      "outputs": [],
      "stateMutability": "nonpayable",
      "type": "function"
    },
    {
      "inputs": [],
      "name": "proposeEma",
      "outputs": [
        {
          "internalType": "uint256",
          "name": "",
          "type": "uint256"
        }
      ],
      "stateMutability": "view",
      "type": "function"
    },
    {
      "inputs": [],
      "name": "proposeLastTime",
      "outputs": [
        {
          "internalType": "uint256",
          "name": "",
          "type": "uint256"
        }
      ],
      "stateMutability": "view",
      "type": "function"
    },
    {
      "inputs": [],
      "name": "renounceGovernorship",
      "outputs": [],
      "stateMutability": "nonpayable",
      "type": "function"
    },
    {
      "inputs": [
        {
          "internalType": "bytes32",
          "name": "key",
          "type": "bytes32"
        },
        {
          "internalType": "uint256",
          "name": "value",
          "type": "uint256"
        }
      ],
      "name": "setConfig",
      "outputs": [],
      "stateMutability": "nonpayable",
      "type": "function"
    },
    {
      "inputs": [
        {
          "internalType": "bytes32",
          "name": "key",
          "type": "bytes32"
        },
        {
          "internalType": "address",
          "name": "addr",
          "type": "address"
        },
        {
          "internalType": "uint256",
          "name": "value",
          "type": "uint256"
        }
      ],
      "name": "setConfig",
      "outputs": [],
      "stateMutability": "nonpayable",
      "type": "function"
    },
    {
      "inputs": [
        {
          "internalType": "bytes32",
          "name": "key",
          "type": "bytes32"
        },
        {
          "internalType": "uint256",
          "name": "index",
          "type": "uint256"
        },
        {
          "internalType": "uint256",
          "name": "value",
          "type": "uint256"
        }
      ],
      "name": "setConfig",
      "outputs": [],
      "stateMutability": "nonpayable",
      "type": "function"
    },
    {
      "inputs": [
        {
          "internalType": "bytes32",
          "name": "key",
          "type": "bytes32"
        },
        {
          "internalType": "string",
          "name": "value",
          "type": "string"
        }
      ],
      "name": "setConfigString",
      "outputs": [],
      "stateMutability": "nonpayable",
      "type": "function"
    },
    {
      "inputs": [
        {
          "internalType": "bytes32",
          "name": "key",
          "type": "bytes32"
        },
        {
          "internalType": "uint256",
          "name": "index",
          "type": "uint256"
        },
        {
          "internalType": "string",
          "name": "value",
          "type": "string"
        }
      ],
      "name": "setConfigString",
      "outputs": [],
      "stateMutability": "nonpayable",
      "type": "function"
    },
    {
      "inputs": [
        {
          "internalType": "uint256",
          "name": "amount",
          "type": "uint256"
        }
      ],
      "name": "staking",
      "outputs": [],
      "stateMutability": "nonpayable",
      "type": "function"
    },
    {
      "inputs": [],
      "name": "totalClaimedReward",
      "outputs": [
        {
          "internalType": "uint256",
          "name": "",
          "type": "uint256"
        }
      ],
      "stateMutability": "view",
      "type": "function"
    },
    {
      "inputs": [],
      "name": "totalReward",
      "outputs": [
        {
          "internalType": "uint256",
          "name": "",
          "type": "uint256"
        }
      ],
      "stateMutability": "view",
      "type": "function"
    },
    {
      "inputs": [],
      "name": "totalStake",
      "outputs": [
        {
          "internalType": "uint256",
          "name": "",
          "type": "uint256"
        }
      ],
      "stateMutability": "view",
      "type": "function"
    },
    {
      "inputs": [
        {
          "internalType": "address payable",
          "name": "to",
          "type": "address"
        },
        {
          "internalType": "uint256",
          "name": "amount",
          "type": "uint256"
        }
      ],
      "name": "transferFee",
      "outputs": [],
      "stateMutability": "nonpayable",
      "type": "function"
    },
    {
      "inputs": [
        {
          "internalType": "address",
          "name": "newGovernor",
          "type": "address"
        }
      ],
      "name": "transferGovernorship",
      "outputs": [],
      "stateMutability": "nonpayable",
      "type": "function"
    },
    {
      "inputs": [
        {
          "internalType": "uint256",
          "name": "amount",
          "type": "uint256"
        }
      ],
      "name": "unStaking",
      "outputs": [],
      "stateMutability": "nonpayable",
      "type": "function"
    },
    {
      "inputs": [
        {
          "internalType": "bytes32",
          "name": "_ID",
          "type": "bytes32"
        },
        {
          "internalType": "bytes32",
          "name": "_vote",
          "type": "bytes32"
        }
      ],
      "name": "vote",
      "outputs": [],
      "stateMutability": "nonpayable",
      "type": "function"
    },
    {
      "inputs": [
        {
          "internalType": "bytes32",
          "name": "_proposeID",
          "type": "bytes32"
        }
      ],
      "name": "voteCancle",
      "outputs": [],
      "stateMutability": "nonpayable",
      "type": "function"
    },
    {
      "inputs": [],
      "name": "voteEma",
      "outputs": [
        {
          "internalType": "uint256",
          "name": "",
          "type": "uint256"
        }
      ],
      "stateMutability": "view",
      "type": "function"
    },
    {
      "inputs": [],
      "name": "voteLastTime",
      "outputs": [
        {
          "internalType": "uint256",
          "name": "",
          "type": "uint256"
        }
      ],
      "stateMutability": "view",
      "type": "function"
    },
    {
      "inputs": [
        {
          "internalType": "bytes32",
          "name": "_proposeID",
          "type": "bytes32"
        }
      ],
      "name": "voteNo",
      "outputs": [],
      "stateMutability": "nonpayable",
      "type": "function"
    },
    {
      "inputs": [
        {
          "internalType": "bytes32",
          "name": "_proposeID",
          "type": "bytes32"
        }
      ],
      "name": "voteYes",
      "outputs": [],
      "stateMutability": "nonpayable",
      "type": "function"
    },
    {
      "inputs": [],
      "name": "withdraw",
      "outputs": [],
      "stateMutability": "nonpayable",
      "type": "function"
    }
  ],
  "bytecode": "0x608060405234801561001057600080fd5b50614a6e806100206000396000f3fe6080604052600436106104315760003560e01c80637ff3366f11610229578063b98cf3391161012e578063d6d69a78116100b6578063e8a60ca61161007a578063e8a60ca614611226578063eeaaf19d14611259578063f23717e514611289578063f6b62166146112b3578063fdb66356146112dd57610431565b8063d6d69a781461117e578063d82e396214611193578063ddf2be3f146111c6578063e02f0b9f146111fc578063e65782c31461121157610431565b8063c7bc95c2116100fd578063c7bc95c214611079578063cc99336d146110a9578063ce5494bb146110e8578063d07ef2061461111b578063d2de16e11461114557610431565b8063b98cf33914610f3b578063bf363b1814610ff8578063c3ab290814611031578063c4d66de81461104657610431565b80638ec872e3116101b1578063a4a330ba11610180578063a4a330ba14610e3c578063ae169a5014610e75578063b21544f314610e9f578063b6aa515b14610ede578063b84da88614610f1157610431565b80638ec872e314610d96578063966a666c14610dc65780639cb700a014610df4578063a205467614610e0957610431565b806383b60260116101f857806383b6026014610cca57806386f43a4114610cfd57806387fbee3214610d275780638b0e9f3f14610d575780638ca3a28914610d6c57610431565b80637ff3366f14610c615780638069c20414610c765780638129fc1c14610ca057806381c0c26314610cb557610431565b80633ccfd60b1161033a5780635ec2dc8d116102c257806374cd9f901161028657806374cd9f9014610bc8578063750142e614610bf85780637bae981b14610c0d5780637d22a2e114610c375780637f3e763614610c4c57610431565b80635ec2dc8d14610b155780636a0f6a4114610b1d5780636a17661314610b565780636a93b11114610b6b5780636dd5b69d14610b9e57610431565b80634fbdea4d116103095780634fbdea4d14610955578063500a15641461096a57806352665f471461097f57806353ef2572146109b85780635cd8a76b14610b0057610431565b80633ccfd60b146108aa5780633ecba07e146108bf57806340809f9d146108fe5780634efee4f51461094057610431565b80631dbb2a22116103bd5780632bd543c71161038c5780632bd543c7146107575780632c678c6414610793578063336e1e39146107a857806335a677bf146107db57806336d5cb171461088057610431565b80631dbb2a22146106b25780631fe48fb6146106dc578063247b709c1461070f5780632a4918771461072457610431565b806311d58b2c1161040457806311d58b2c1461053257806312290cfb1461056257806315fe96dc146105955780631968b4e8146105c75780631b9a9f9e1461067f57610431565b806302ef6c86146104365780630c340a241461047b5780630fb97045146104ac57806310574364146104f3575b600080fd5b34801561044257600080fd5b506104696004803603602081101561045957600080fd5b50356001600160a01b03166112f2565b60408051918252519081900360200190f35b34801561048757600080fd5b506104906113e6565b604080516001600160a01b039092168252519081900360200190f35b3480156104b857600080fd5b506104df600480360360208110156104cf57600080fd5b50356001600160a01b03166113f5565b604080519115158252519081900360200190f35b3480156104ff57600080fd5b506104df6004803603604081101561051657600080fd5b5080356001600160a01b0316906020013563ffffffff1661140a565b34801561053e57600080fd5b506104696004803603602081101561055557600080fd5b503563ffffffff1661142a565b34801561056e57600080fd5b506104696004803603602081101561058557600080fd5b50356001600160a01b031661143c565b3480156105a157600080fd5b506105c5600480360360408110156105b857600080fd5b508035906020013561144e565b005b3480156105d357600080fd5b506105c5600480360360408110156105ea57600080fd5b81359190810190604081016020820135600160201b81111561060b57600080fd5b82018360208201111561061d57600080fd5b803590602001918460018302840111600160201b8311171561063e57600080fd5b91908080601f016020809104026020016040519081016040528093929190818152602001838380828437600092019190915250929550611473945050505050565b34801561068b57600080fd5b506105c5600480360360208110156106a257600080fd5b50356001600160a01b0316611494565b3480156106be57600080fd5b506105c5600480360360208110156106d557600080fd5b5035611572565b3480156106e857600080fd5b50610469600480360360208110156106ff57600080fd5b50356001600160a01b031661175d565b34801561071b57600080fd5b506105c5611778565b34801561073057600080fd5b506104696004803603602081101561074757600080fd5b50356001600160a01b03166118d2565b34801561076357600080fd5b506104696004803603608081101561077a57600080fd5b50803590602081013590604081013590606001356118e4565b34801561079f57600080fd5b506104df61192e565b3480156107b457600080fd5b50610469600480360360208110156107cb57600080fd5b50356001600160a01b0316611937565b3480156107e757600080fd5b5061080b600480360360408110156107fe57600080fd5b5080359060200135611949565b6040805160208082528351818301528351919283929083019185019080838360005b8381101561084557818101518382015260200161082d565b50505050905090810190601f1680156108725780820380516001836020036101000a031916815260200191505b509250505060405180910390f35b34801561088c57600080fd5b50610469600480360360208110156108a357600080fd5b50356119ef565b3480156108b657600080fd5b506105c5611a21565b3480156108cb57600080fd5b50610469600480360360408110156108e257600080fd5b5080356001600160a01b0316906020013563ffffffff16611d2c565b34801561090a57600080fd5b506104696004803603608081101561092157600080fd5b5080359060208101359063ffffffff6040820135169060600135611d49565b34801561094c57600080fd5b506105c5611da9565b34801561096157600080fd5b50610469611db5565b34801561097657600080fd5b50610490611dbb565b34801561098b57600080fd5b50610469600480360360408110156109a257600080fd5b50803590602001356001600160a01b0316611e09565b3480156109c457600080fd5b506105c5600480360360c08110156109db57600080fd5b81359190810190604081016020820135600160201b8111156109fc57600080fd5b820183602082011115610a0e57600080fd5b803590602001918460018302840111600160201b83111715610a2f57600080fd5b91908080601f0160208091040260200160405190810160405280939291908181526020018383808284376000920191909152509295949360208101935035915050600160201b811115610a8157600080fd5b820183602082011115610a9357600080fd5b803590602001918460018302840111600160201b83111715610ab457600080fd5b91908080601f0160208091040260200160405190810160405280939291908181526020018383808284376000920191909152509295505082359350505060208101359060400135611e25565b348015610b0c57600080fd5b506105c561203b565b6105c56120a0565b348015610b2957600080fd5b506104df60048036036040811015610b4057600080fd5b50803590602001356001600160a01b03166120b2565b348015610b6257600080fd5b506104df6120d2565b348015610b7757600080fd5b5061046960048036036020811015610b8e57600080fd5b50356001600160a01b03166120db565b348015610baa57600080fd5b5061046960048036036020811015610bc157600080fd5b5035612282565b348015610bd457600080fd5b5061046960048036036020811015610beb57600080fd5b503563ffffffff16612294565b348015610c0457600080fd5b506104696122a6565b348015610c1957600080fd5b506105c560048036036020811015610c3057600080fd5b50356122ac565b348015610c4357600080fd5b506104906122c3565b348015610c5857600080fd5b506104696122d2565b348015610c6d57600080fd5b506104906122d8565b348015610c8257600080fd5b5061046960048036036020811015610c9957600080fd5b50356122e7565b348015610cac57600080fd5b506105c56123b2565b348015610cc157600080fd5b506105c5612453565b348015610cd657600080fd5b506104df60048036036020811015610ced57600080fd5b50356001600160a01b03166124b4565b348015610d0957600080fd5b506105c560048036036020811015610d2057600080fd5b50356124d2565b348015610d3357600080fd5b5061046960048036036020811015610d4a57600080fd5b503563ffffffff16612531565b348015610d6357600080fd5b50610469612543565b348015610d7857600080fd5b5061080b60048036036020811015610d8f57600080fd5b5035612549565b348015610da257600080fd5b5061046960048036036040811015610db957600080fd5b50803590602001356125ea565b348015610dd257600080fd5b50610ddb6125fd565b6040805163ffffffff9092168252519081900360200190f35b348015610e0057600080fd5b50610469612611565b348015610e1557600080fd5b5061046960048036036020811015610e2c57600080fd5b50356001600160a01b0316612617565b348015610e4857600080fd5b506104df60048036036040811015610e5f57600080fd5b50803590602001356001600160a01b0316612632565b348015610e8157600080fd5b506105c560048036036020811015610e9857600080fd5b5035612652565b348015610eab57600080fd5b506105c560048036036060811015610ec257600080fd5b508035906001600160a01b036020820135169060400135612709565b348015610eea57600080fd5b506105c560048036036020811015610f0157600080fd5b50356001600160a01b031661273a565b348015610f1d57600080fd5b5061046960048036036020811015610f3457600080fd5b503561275a565b348015610f4757600080fd5b506105c560048036036060811015610f5e57600080fd5b813591602081013591810190606081016040820135600160201b811115610f8457600080fd5b820183602082011115610f9657600080fd5b803590602001918460018302840111600160201b83111715610fb757600080fd5b91908080601f0160208091040260200160405190810160405280939291908181526020018383808284376000920191909152509295506127ce945050505050565b34801561100457600080fd5b506105c56004803603604081101561101b57600080fd5b506001600160a01b0381351690602001356127f1565b34801561103d57600080fd5b5061046961283e565b34801561105257600080fd5b506105c56004803603602081101561106957600080fd5b50356001600160a01b0316612844565b34801561108557600080fd5b506104696004803603604081101561109c57600080fd5b508035906020013561295f565b3480156110b557600080fd5b50610ddb600480360360408110156110cc57600080fd5b5080356001600160a01b0316906020013563ffffffff1661299e565b3480156110f457600080fd5b506105c56004803603602081101561110b57600080fd5b50356001600160a01b03166129c1565b34801561112757600080fd5b506105c56004803603602081101561113e57600080fd5b5035612c00565b34801561115157600080fd5b50610ddb6004803603604081101561116857600080fd5b506001600160a01b038135169060200135612c15565b34801561118a57600080fd5b50610469612c5b565b34801561119f57600080fd5b50610469600480360360208110156111b657600080fd5b50356001600160a01b0316612c61565b3480156111d257600080fd5b506105c5600480360360608110156111e957600080fd5b5080359060208101359060400135612ceb565b34801561120857600080fd5b50610ddb612d0e565b34801561121d57600080fd5b50610469612d21565b34801561123257600080fd5b506104696004803603602081101561124957600080fd5b50356001600160a01b0316612d34565b34801561126557600080fd5b506105c56004803603604081101561127c57600080fd5b5080359060200135612d46565b34801561129557600080fd5b50610469600480360360208110156112ac57600080fd5b5035612fa9565b3480156112bf57600080fd5b506105c5600480360360208110156112d657600080fd5b5035612fd4565b3480156112e957600080fd5b50610490612fec565b600080805b6001600160a01b0384166000908152603f602052604090205463ffffffff821610156113dd576001600160a01b0384166000908152603f60205260408120805463ffffffff841690811061134757fe5b600091825260208083206008830401546001600160a01b0389168452603e8252604080852060079094166004026101000a90910463ffffffff9081168086529390925290922054909250429116116113d4576001600160a01b0385166000908152603d6020908152604080832063ffffffff80861685529252909120546113d19185919061303616565b92505b506001016112f7565b5090505b919050565b6041546001600160a01b031681565b604c6020526000908152604090205460ff1681565b603c60209081526000928352604080842090915290825290205460ff1681565b60386020526000908152604090205481565b603b6020526000908152604090205481565b6041546001600160a01b0316331461146557600080fd5b61146f8282613090565b5050565b6041546001600160a01b0316331461148a57600080fd5b61146f82826130b7565b6041546001600160a01b031633146114ab57600080fd5b6114c96e676f7652657761726450657244617960881b600080612709565b6114ed731c1c9bdc1bdcd954995dd85c9914195c98d95b9d60621b60006002612709565b61150e701d9bdd1954995dd85c9914195c98d95b9d607a1b60006062612709565b6115336c626f756e63654164647265737360981b6000836001600160a01b0316612709565b426044819055604555611552683635c9adc5dea00000620151806130d6565b60465561156c690a604b9a42df9ca00000620151806130d6565b60475550565b33816115b7576040805162461bcd60e51b815260206004820152600f60248201526e30b6b7bab73a1034b9903d32b9379760891b604482015290519081900360640190fd5b60006115c1611dbb565b604080516323b872dd60e01b81526001600160a01b038581166004830152306024830152604482018790529151929350908316916323b872dd916064808201926020929091908290030181600087803b15801561161d57600080fd5b505af1158015611631573d6000803e3d6000fd5b505050506040513d602081101561164757600080fd5b50506040805163095ea7b360e01b815230600482015260006024820181905291516001600160a01b0384169263095ea7b392604480820193602093909283900390910190829087803b15801561169c57600080fd5b505af11580156116b0573d6000803e3d6000fd5b505050506040513d60208110156116c657600080fd5b50506001600160a01b0382166000908152603b60205260409020546116eb9084613036565b6001600160a01b0383166000908152603b60205260409020556035546117119084613036565b603555604080516001600160a01b03841681526020810185905281517f9e71bc8eea02a63969f509818f2dafb9254532904319f9dbda79b67bd34a5f3d929181900390910190a1505050565b6001600160a01b03166000908152603b602052604090205490565b33600081815260486020526040902054801561146f5760006117ad6e676f7652657761726450657244617960881b6000611e09565b9050808211156117bb578091505b60006117d86c626f756e63654164647265737360981b60006125ea565b90506117e2611dbb565b6001600160a01b03166323b872dd8286866040518463ffffffff1660e01b815260040180846001600160a01b03168152602001836001600160a01b031681526020018281526020019350505050602060405180830381600087803b15801561184957600080fd5b505af115801561185d573d6000803e3d6000fd5b505050506040513d602081101561187357600080fd5b50503360009081526048602090815260408083209290925581516001600160a01b038716815290810185905281517f415110f280e4a06a87cf50295ccfc165e6b7f88a85696f8ca2f44dfd5a40cc03929181900390910190a150505050565b60406020819052600091825290205481565b6000818311156118f2578192505b6119238261191d6119038688613118565b6119176119108789613171565b8a90613118565b90613036565b906130d6565b90505b949350505050565b604d5460ff1681565b60486020526000908152604090205481565b81811860009081526043602090815260409182902080548351601f60026000196101006001861615020190931692909204918201849004840281018401909452808452606093928301828280156119e15780601f106119b6576101008083540402835291602001916119e1565b820191906000526020600020905b8154815290600101906020018083116119c457829003601f168201915b505050505090505b92915050565b600080611a076044544261317190919063ffffffff16565b9050611a1a604654848362015180611d49565b9392505050565b6040805162461bcd60e51b815260206004820152601f60248201527f66756e6374696f6e207769746864726177206973206465707265636174656400604482015290519081900360640190fd5b8463ffffffff168163ffffffff161015611bbb576001600160a01b0386166000908152603f60205260408120805463ffffffff8416908110611aac57fe5b600091825260208083206008830401546001600160a01b038b168452603e8252604080852060079094166004026101000a90910463ffffffff908116808652939092529092205490925042911611611bb2576001600160a01b0387166000908152603d6020908152604080832063ffffffff8086168552925290912054611b369185919061303616565b6001600160a01b0388166000818152603d6020908152604080832063ffffffff808816808652918452828520859055948452603e83528184209084529091529020805463ffffffff191690558651919450839187918716908110611b9657fe5b63ffffffff909216602092830291909101909101526001909301925b50600101611a6e565b5060005b8263ffffffff168163ffffffff161015611c4f57600081858363ffffffff1681518110611be857fe5b6020026020010151039050611c21603f6000896001600160a01b03166001600160a01b03168152602001908152602001600020826131b3565b6001600160a01b0388166000908152603f602052604090208154611c45929061488d565b5050600101611bbf565b508015611ce157611c5e611dbb565b6001600160a01b031663a9059cbb86836040518363ffffffff1660e01b815260040180836001600160a01b0316815260200182815260200192505050602060405180830381600087803b158015611cb457600080fd5b505af1158015611cc8573d6000803e3d6000fd5b505050506040513d6020811015611cde57600080fd5b50505b604080516001600160a01b03871681526020810183905281517f7084f5476618d8e60b11ef0d7d3f06914655adb8793e28ff7f018d4c76d505d5929181900390910190a15050505050565b603d60209081526000928352604080842090915290825290205481565b600063ffffffff831615611d8257611d7b85611d6e8663ffffffff808816906130d616565b8563ffffffff16856118e4565b9050611926565b611d9e670de0b6b3a764000061191d86650a86d090ed2c613118565b909401949350505050565b611db36000612652565b565b60375481565b7f426f756e636553533a3a5374616b65546f6b656e41646472657373000000000060005260426020527fe39ae391e3df594c19bf435ac3f72e7ffb94809512d0a3e961569a3e3d096a8d5490565b6001600160a01b03161860009081526042602052604090205490565b611e338686868686866132fe565b611e7460405160200180806a74696d6550726f706f736560a81b815250600b019050604051602081830303815290604052805190602001208760001c6125ea565b336000908152604b60205260409020541015611edc57611ecb60405160200180806a74696d6550726f706f736560a81b815250600b019050604051602081830303815290604052805190602001208760001c6125ea565b336000908152604b60205260409020555b6000868152604a6020908152604080832033845290915290205460ff1615611f0357612033565b6000868152604a602090815260408083203384528252808320805460ff19166001179055603b9091528120549080611f3a836119ef565b9050611f458361275a565b91508115611f785733600090815260486020526040902054611f679083613036565b336000908152604860205260409020555b611fbd6040516020018080721b585e11dbdd995c9b985b98d954995dd85c99606a1b815250601301905060405160208183030381529060405280519060200120612282565b336000908152604860205260409020541115612029576120186040516020018080721b585e11dbdd995c9b985b98d954995dd85c99606a1b815250601301905060405160208183030381529060405280519060200120612282565b336000908152604860205260409020555b4260445560465550505b505050505050565b6041546001600160a01b0316331461205257600080fd5b611db36040516020018080721b585e11dbdd995c9b985b98d954995dd85c99606a1b8152506013019050604051602081830303815290604052805190602001206706f05b59d3b20000613090565b6036546120ad9034613036565b603655565b604a60209081526000928352604080842090915290825290205460ff1681565b604d5460ff1690565b6000806120e783612c61565b9050806120f85760009150506113e1565b60606121026139dd565b9050606061210e612fec565b6001600160a01b031663d06ca61f84846040518363ffffffff1660e01b81526004018083815260200180602001828103825283818151815260200191508051906020019060200280838360005b8381101561217357818101518382015260200161215b565b50505050905001935050505060006040518083038186803b15801561219757600080fd5b505afa1580156121ab573d6000803e3d6000fd5b505050506040513d6000823e601f3d908101601f1916820160405260208110156121d457600080fd5b8101908080516040519392919084600160201b8211156121f357600080fd5b90830190602082018581111561220857600080fd5b82518660208202830111600160201b8211171561222457600080fd5b82525081516020918201928201910280838360005b83811015612251578181015183820152602001612239565b5050505090500160405250505090508060018251038151811061227057fe5b60200260200101519350505050919050565b60009081526042602052604090205490565b603a6020526000908152604090205481565b60365481565b6122c08166564f54455f4e4f60c81b612d46565b50565b6034546001600160a01b031681565b60445481565b6033546001600160a01b031681565b6000806122ff6045544261317190919063ffffffff16565b90506000612314604754858462015180611d49565b905060006123356e676f7652657761726450657244617960881b6000611e09565b90506000612358701d9bdd1954995dd85c9914195c98d95b9d607a1b6000611e09565b9050600061236b606461191d8585613118565b905061237a8462015180613118565b871061238c5794506113e19350505050565b6123a661239c8562015180613118565b61191d838a613118565b955050505050506113e1565b6041546001600160a01b031633146123c957600080fd5b604260205266470de4df8200007f4ecb92ef4bef79915267d10bc0b2e93a57b514cdd1258078fd43f47c75f37ef5556203f4807fb25700c905a2dab8d67efe406c0dfd53a4297ce678a1c81cf3ab11f2f3d85edf55657370616e486960d01b60005262093a807f212f0407df1f408924529ae9122f0eca4cf60a13bc13ee332a6a6b1500bf2c9f55565b6041546001600160a01b0316331461246a57600080fd5b6041546040516000916001600160a01b0316907fc7c0c772add429241571afb3805861fb3cfa2af374534088b76cdb4325a87e9a908390a3604180546001600160a01b0319169055565b6001600160a01b03166000908152604c602052604090205460ff1690565b336000908152604b6020526040902054421015612528576040805162461bcd60e51b815260206004820152600f60248201526e5374616b696e67206e6f742064756560881b604482015290519081900360640190fd5b6122c081613acc565b60396020526000908152604090205481565b60355481565b60008181526043602090815260409182902080548351601f60026000196101006001861615020190931692909204918201849004840281018401909452808452606093928301828280156125de5780601f106125b3576101008083540402835291602001916125de565b820191906000526020600020905b8154815290600101906020018083116125c157829003601f168201915b50505050509050919050565b1860009081526042602052604090205490565b600061260c42620151806130d6565b905090565b60455481565b6001600160a01b031660009081526048602052604090205490565b604960209081526000928352604080842090915290825290205460ff1681565b61265a613cc6565b33600061266682612c61565b6037549091506126769082613036565b60375580156126b057600061268c8260026130d6565b9050600061269a8383613171565b905080156126ad576126ad848287613d21565b50505b6001600160a01b03821660008181526040602081815291819020429055805192835290820183905280517f106f923f993c2149d49b4255ff723acafa1f2d94393f561d3eda32ae348f72419281900390910190a1505050565b6041546001600160a01b0316331461272057600080fd5b6127356001600160a01b038316841882613090565b505050565b6041546001600160a01b0316331461275157600080fd5b6122c081613ec1565b6000806127726044544261317190919063ffffffff16565b90506000612787604654858462015180611d49565b905060006127a86e676f7652657761726450657244617960881b6000611e09565b90506000612358731c1c9bdc1bdcd954995dd85c9914195c98d95b9d60621b6000611e09565b6041546001600160a01b031633146127e557600080fd5b612735838318826130b7565b6041546001600160a01b0316331461280857600080fd5b6040516001600160a01b0383169082156108fc029083906000818181858888f19350505050158015612735573d6000803e3d6000fd5b60475481565b6041546001600160a01b031633148061286657506041546001600160a01b0316155b6128aa576040805162461bcd60e51b815260206004820152601060248201526f34b73b30b634b21033b7bb32b93737b960811b604482015290519081900360640190fd5b604180546001600160a01b0319166001600160a01b03929092169190911790556042602052735beabaebb3146685dd74176f68a0721f91297d377fe39ae391e3df594c19bf435ac3f72e7ffb94809512d0a3e961569a3e3d096a8d5578109bdd5b98d954d4ce8e955b9a54ddd85c10dbdb9d1c9858dd603a1b600052737a250d5630b4cf539739df2c5dacb4c659f2488d7f9ac39a4ce830862ac1cf00287ad38a117542ec1f6826664f186dafbbab60f97355565b6000611a1a604051602001808064766f74657360d81b81525060050190506040516020818303038152906040528051906020012083851860001c6125ea565b603e60209081526000928352604080842090915290825290205463ffffffff1681565b604d5460ff1615612a04576040805162461bcd60e51b81526020600482015260086024820152671b5a59dc985d195960c21b604482015290519081900360640190fd5b604d805460ff191660011790556000612a1b611dbb565b6001600160a01b03166370a08231306040518263ffffffff1660e01b815260040180826001600160a01b0316815260200191505060206040518083038186803b158015612a6757600080fd5b505afa158015612a7b573d6000803e3d6000fd5b505050506040513d6020811015612a9157600080fd5b50519050612a9d611dbb565b6001600160a01b031663095ea7b383836040518363ffffffff1660e01b815260040180836001600160a01b0316815260200182815260200192505050602060405180830381600087803b158015612af357600080fd5b505af1158015612b07573d6000803e3d6000fd5b505050506040513d6020811015612b1d57600080fd5b50507f426f756e636553533a3a5374616b65546f6b656e41646472657373000000000060005260426020526001600160a01b0382167fe39ae391e3df594c19bf435ac3f72e7ffb94809512d0a3e961569a3e3d096a8d55612b7c611dbb565b6001600160a01b03166394b918de826040518263ffffffff1660e01b815260040180828152602001915050600060405180830381600087803b158015612bc157600080fd5b505af1158015612bd5573d6000803e3d6000fd5b5050603554612be8925090506064613118565b603555603754612bf9906064613118565b6037555050565b6122c08167564f54455f59455360c01b612d46565b603f6020528160005260406000208181548110612c2e57fe5b9060005260206000209060089182820401919006600402915091509054906101000a900463ffffffff1681565b60465481565b6001600160a01b0381166000908152604060208190528120548190612c87904290613171565b905062278d00811115612c9a575062278d005b603554612cab5760009150506113e1565b6035546001600160a01b0384166000908152603b6020526040902054611a1a9162278d009161191d918591612ce591908490303190613118565b90613118565b6041546001600160a01b03163314612d0257600080fd5b61273583831882613090565b603454600160a01b900463ffffffff1681565b3360009081526048602052604090205490565b604b6020526000908152604090205481565b612d508282613f30565b612d9160405160200180806a74696d6550726f706f736560a81b815250600b019050604051602081830303815290604052805190602001208360001c6125ea565b336000908152604b60205260409020541015612df957612de860405160200180806a74696d6550726f706f736560a81b815250600b019050604051602081830303815290604052805190602001208360001c6125ea565b336000908152604b60205260409020555b600082815260496020908152604080832033845290915290205460ff1615612e205761146f565b336000908152603b6020526040902054612e76576040805162461bcd60e51b81526020600482015260126024820152711c1b19585cd9481cdd185ad948199a5c9cdd60721b604482015290519081900360640190fd5b60008281526049602090815260408083203384528252808320805460ff19166001179055603b9091528120549080612ead83612fa9565b9050612eb8836122e7565b91508115612eeb5733600090815260486020526040902054612eda9083613036565b336000908152604860205260409020555b612f306040516020018080721b585e11dbdd995c9b985b98d954995dd85c99606a1b815250601301905060405160208183030381529060405280519060200120612282565b336000908152604860205260409020541115612f9c57612f8b6040516020018080721b585e11dbdd995c9b985b98d954995dd85c99606a1b815250601301905060405160208183030381529060405280519060200120612282565b336000908152604860205260409020555b4260455560475550505050565b600080612fc16045544261317190919063ffffffff16565b9050611a1a604754848362015180611d49565b6122c0816a1593d51157d0d05390d15360aa1b612d46565b78109bdd5b98d954d4ce8e955b9a54ddd85c10dbdb9d1c9858dd603a1b60005260426020527f9ac39a4ce830862ac1cf00287ad38a117542ec1f6826664f186dafbbab60f9735490565b600082820183811015611a1a576040805162461bcd60e51b815260206004820152601b60248201527f536166654d6174683a206164646974696f6e206f766572666c6f770000000000604482015290519081900360640190fd5b600082815260426020526040902054811461146f5760009182526042602052604090912055565b60008281526043602090815260409091208251612735928401906148eb565b6000611a1a83836040518060400160405280601a81526020017f536166654d6174683a206469766973696f6e206279207a65726f00000000000081525061452b565b600082613127575060006119e9565b8282028284828161313457fe5b0414611a1a5760405162461bcd60e51b81526004018080602001828103825260218152602001806149c56021913960400191505060405180910390fd5b6000611a1a83836040518060400160405280601e81526020017f536166654d6174683a207375627472616374696f6e206f766572666c6f7700008152506145cd565b815460009063ffffffff831610613207576040805162461bcd60e51b815260206004820152601360248201527234b73232bc1037baba1037b3103930b733b29760691b604482015290519081900360640190fd5b82546000190163ffffffff831610156132be57815b83546000190163ffffffff821610156132bc57838160010163ffffffff168154811061324457fe5b90600052602060002090600891828204019190066004029054906101000a900463ffffffff16848263ffffffff168154811061327c57fe5b90600052602060002090600891828204019190066004026101000a81548163ffffffff021916908363ffffffff160217905550808060010191505061321c565b505b828054806132c857fe5b600082815260209020600860001990920191820401805463ffffffff600460078516026101000a02191690559055508192915050565b3361331b6f7468726573686f6c6450726f706f736560801b612282565b6035546001600160a01b0383166000908152603b60205260409020549102670de0b6b3a7640000909102101561335057600080fd5b613391600161191760405160200180806770726f706f73657360c01b81525060080190506040516020818303038152906040528051906020012060006125ea565b6040516020018082815260200191505060405160208183030381529060405280519060200120965060008760001c9050816001600160a01b03167ffa7090e9ac634f59bf10003d9d6173fd757f5d39ee05d63380c4e948607f97ba8260001b8989898989604051808781526020018060200180602001868152602001858152602001848152602001838103835288818151815260200191508051906020019080838360005b8381101561344e578181015183820152602001613436565b50505050905090810190601f16801561347b5780820380516001836020036101000a031916815260200191505b50838103825287518152875160209182019189019080838360005b838110156134ae578181015183820152602001613496565b50505050905090810190601f1680156134db5780820380516001836020036101000a031916815260200191505b509850505050505050505060405180910390a261352e60405160200180806c70726f706f736553746174757360981b815250600d01905060405160208183030381529060405280519060200120826125ea565b1561356a5760405162461bcd60e51b81526004018080602001828103825260238152602001806149e66023913960400191505060405180910390fd5b6135c660405160200180806c70726f706f736553746174757360981b815250600d01905060405160208183030381529060405280519060200120827450524f504f53455f5354415455535f564f54494e4760581b60001c612d02565b61360b604051602001808067383937b837b9b2b960c11b81525060080190506040516020818303038152906040528051906020012082846001600160a01b0316612d02565b61364d60405160200180806d1c1c9bdc1bdcd954dd589a9958dd60921b815250600e0190506040516020818303038152906040528051906020012082896127e5565b61368f60405160200180806d1c1c9bdc1bdcd950dbdb9d195b9d60921b815250600e0190506040516020818303038152906040528051906020012082886127e5565b657370616e4c6f60d01b60005260426020527fb25700c905a2dab8d67efe406c0dfd53a4297ce678a1c81cf3ab11f2f3d85edf5485101561370b576040805162461bcd60e51b815260206004820152601160248201527014dc185b881a5cc81d1bdbc81cda1bdc9d607a1b604482015290519081900360640190fd5b657370616e486960d01b60005260426020527f212f0407df1f408924529ae9122f0eca4cf60a13bc13ee332a6a6b1500bf2c9f54851115613786576040805162461bcd60e51b815260206004820152601060248201526f5370616e20697320746f6f206c6f6e6760801b604482015290519081900360640190fd5b604080516a74696d6550726f706f736560a81b6020808301919091528251808303600b018152602b90920190925280519101206137cd90826137c88842613036565b612d02565b61380e60405160200180806970726f706f73654b657960b01b815250600a01905060405160208183030381529060405280519060200120828660001c612d02565b61384e60405160200180806b70726f706f736556616c756560a01b815250600c019050604051602081830303815290604052805190602001208285612d02565b6138c060405160200180806770726f706f73657360c01b815250600801905060405160208183030381529060405280519060200120826137c860405160200180806770726f706f73657360c01b81525060080190506040516020818303038152906040528051906020012060006125ea565b6138fd60405160200180806770726f706f73657360c01b815250600801905060405160208183030381529060405280519060200120600083612d02565b61397b60405160200180806d70726f706f736573566f74696e6760901b815250600e01905060405160208183030381529060405280519060200120826137c860405160200180806d70726f706f736573566f74696e6760901b815250600e0190506040516020818303038152906040528051906020012060006125ea565b6139be60405160200180806d70726f706f736573566f74696e6760901b815250600e01905060405160208183030381529060405280519060200120600083612d02565b6139d38867564f54455f59455360c01b612d46565b5050505050505050565b604080516002808252606080830184529283929190602083019080368337019050509050613a09612fec565b6001600160a01b031663ad5c46486040518163ffffffff1660e01b815260040160206040518083038186803b158015613a4157600080fd5b505afa158015613a55573d6000803e3d6000fd5b505050506040513d6020811015613a6b57600080fd5b505181518290600090613a7a57fe5b60200260200101906001600160a01b031690816001600160a01b031681525050613aa2611dbb565b81600181518110613aaf57fe5b6001600160a01b0390921660209283029190910190910152905090565b3381613b10576040805162461bcd60e51b815260206004820152600e60248201526d616d6f756e74206973207a65726f60901b604482015290519081900360640190fd5b816035541015613b515760405162461bcd60e51b8152600401808060200182810382526030815260200180614a096030913960400191505060405180910390fd5b6001600160a01b0381166000908152603b6020526040902054821115613ba85760405162461bcd60e51b815260040180806020018281038252602e815260200180614997602e913960400191505060405180910390fd5b6001600160a01b0381166000908152603b6020526040902054613bcb9083613171565b6001600160a01b0382166000908152603b6020526040902055603554613bf19083613171565b603555613bfc611dbb565b6001600160a01b031663a9059cbb82846040518363ffffffff1660e01b815260040180836001600160a01b0316815260200182815260200192505050602060405180830381600087803b158015613c5257600080fd5b505af1158015613c66573d6000803e3d6000fd5b505050506040513d6020811015613c7c57600080fd5b5050604080516001600160a01b03831681526020810184905281517f79d3df6837cc49ff0e09fd3258e6e45594e0703445bb06825e9d75156eaee8f0929181900390910190a15050565b613cce6120d2565b8015613ce05750613cde336124b4565b155b15611db357336000908152603b602052604081205490613d01826064613118565b9050613d0e338383614627565b336000908152603b602052604090205550565b6000613d2b612fec565b90506060613d376139dd565b9050846000613d48426104b0613036565b9050836001600160a01b0316637ff36ab587878686866040518663ffffffff1660e01b81526004018085815260200180602001846001600160a01b03168152602001838152602001828103825285818151815260200191508051906020019060200280838360005b83811015613dc8578181015183820152602001613db0565b50505050905001955050505050506000604051808303818588803b158015613def57600080fd5b505af1158015613e03573d6000803e3d6000fd5b50505050506040513d6000823e601f3d908101601f191682016040526020811015613e2d57600080fd5b8101908080516040519392919084600160201b821115613e4c57600080fd5b908301906020820185811115613e6157600080fd5b82518660208202830111600160201b82111715613e7d57600080fd5b82525081516020918201928201910280838360005b83811015613eaa578181015183820152602001613e92565b505050509050016040525050505050505050505050565b6001600160a01b038116613ed457600080fd5b6041546040516001600160a01b038084169216907fc7c0c772add429241571afb3805861fb3cfa2af374534088b76cdb4325a87e9a90600090a3604180546001600160a01b0319166001600160a01b0392909216919091179055565b6000613f7560405160200180806c70726f706f736553746174757360981b815250600d019050604051602081830303815290604052805190602001208460001c6125ea565b90507450524f504f53455f5354415455535f564f54494e4760581b8114613fe3576040805162461bcd60e51b815260206004820152601c60248201527f50726f706f736520737461747573206973206e6f7420564f54494e4700000000604482015290519081900360640190fd5b604080516a74696d6550726f706f736560a81b6020808301919091528251808303600b018152602b90920190925280519101203390849061402490826125ea565b42116142ae576001600160a01b0382166000818152603b6020908152604080832054815164766f74657360d81b8185015282518082036005018152602590910190925281519190920120909261407c919085186125ea565b905086811867564f54455f59455360c01b8214806140a3575066564f54455f4e4f60c81b82145b80156140bc57506a1593d51157d0d05390d15360aa1b87145b806140ce575081871862170a5360c01b145b1561414857614148604051602001808064766f74657360d81b815250600501905060405160208183030381529060405280519060200120826137c886614142604051602001808064766f74657360d81b815250600501905060405160208183030381529060405280519060200120876125ea565b90613171565b87871882158061416557506a1593d51157d0d05390d15360aa1b83145b801561418e575067564f54455f59455360c01b88148061418e575066564f54455f4e4f60c81b88145b806141a0575082881862170a5360c01b145b1561421457614214604051602001808064766f74657360d81b815250600501905060405160208183030381529060405280519060200120826137c887611917604051602001808064766f74657360d81b815250600501905060405160208183030381529060405280519060200120876125ea565b61425b604051602001808064766f74657360d81b81525060050190506040516020818303038152906040528051906020012086886001600160a01b0316188a60001c612d02565b88866001600160a01b03167fea430f6241d8ab7a4a7da7b9487de059426309628c9c8e7b3e9438f0f431f39e8a87604051808381526020018281526020019250505060405180910390a350505050614524565b6040805185815260006020820152815187926001600160a01b038616927fea430f6241d8ab7a4a7da7b9487de059426309628c9c8e7b3e9438f0f431f39e929081900390910190a360008061433b60405160200180806d70726f706f736573566f74696e6760901b815250600e0190506040516020818303038152906040528051906020012060006125ea565b90505b82811415801561434d57508015155b1561439f578091508161439760405160200180806d70726f706f736573566f74696e6760901b815250600e01905060405160208183030381529060405280519060200120836125ea565b91505061433e565b61441c60405160200180806d70726f706f736573566f74696e6760901b815250600e01905060405160208183030381529060405280519060200120836137c860405160200180806d70726f706f736573566f74696e6760901b815250600e01905060405160208183030381529060405280519060200120856125ea565b61446360405160200180806d766f7465526573756c744261736560901b815250600e019050604051602081830303815290604052805190602001208860001c603554612d02565b61446c8761468b565b156145215760408051681c1c9bdc1bdcd9525160ba1b602080830191909152825180830360090181526029830184528051908201206970726f706f73654b657960b01b6049840152835160338185030181526053909301909352815191012061452191906144da90866125ea565b60001b61451c60405160200180806b70726f706f736556616c756560a01b815250600c01905060405160208183030381529060405280519060200120876125ea565b61483d565b50505b5050505050565b600081836145b75760405162461bcd60e51b81526004018080602001828103825283818151815260200191508051906020019080838360005b8381101561457c578181015183820152602001614564565b50505050905090810190601f1680156145a95780820380516001836020036101000a031916815260200191505b509250505060405180910390fd5b5060008385816145c357fe5b0495945050505050565b6000818484111561461f5760405162461bcd60e51b815260206004820181815283516024840152835190928392604490910191908501908083836000831561457c578181015183820152602001614564565b505050900390565b6001600160a01b0383166000818152604c6020908152604091829020805460ff19166001179055815185815290810184905281517f98e5a745dfe4f0a8952c2d09eeb25746ce9768004ab459c980d7ad1b5152cbd8929181900390910190a2505050565b6000806146a38367564f54455f59455360c01b61295f565b905060006146bb8466564f54455f4e4f60c81b61295f565b905060006035549050600061470560405160200180806c191a5d9a5cdbdc90589cd95b9d609a1b815250600d01905060405160208183030381529060405280519060200120612282565b90508061471757506753444835ec5800005b8181840201838583870201011194506147a160405160200180806c70726f706f736553746174757360981b815250600d019050604051602081830303815290604052805190602001208760001c876147855772141493d413d4d157d4d510551554d7d1905253606a1b6137c8565b7250524f504f53455f5354415455535f5041535360681b612d02565b60006147e26040516020018080681c1c9bdc1bdcd9525160ba1b8152506009019050604051602081830303815290604052805190602001208860001c6125ea565b60408051881515815260208101889052808201879052606081018690529051919250829189917fa0de2ad353f45bfcc398ad86d3575629f76b3c353ca88ce789602fb9ae5d207c919081900360800190a35050505050919050565b8161484757612735565b6148518282613090565b604080518281529051839185917f4691be92868fa80845b397f0e016905e1b4322422075895b96f9b4a8f1d918cf9181900360200190a3505050565b828054828255906000526020600020906007016008900481019282156148db576000526020600020916007016008900482015b828111156148db5782548255916001019190600101906148c0565b506148e7929150614965565b5090565b828054600181600116156101000203166002900490600052602060002090601f016020900481019282601f1061492c57805160ff1916838001178555614959565b82800160010185558215614959579182015b8281111561495957825182559160200191906001019061493e565b506148e7929150614981565b5b808211156148e757805463ffffffff19168155600101614966565b5b808211156148e7576000815560010161498256fe6d79207374616b652073686f756c64206c6172676572207468616e206f7220657175616c20746f20616d6f756e74536166654d6174683a206d756c7469706c69636174696f6e206f766572666c6f7743616e27742070726f706f73652073616d652070726f706f7365494420616761696e21746f74616c5374616b652073686f756c64206c6172676572207468616e206f7220657175616c20746f20616d6f756e74a2646970667358221220a8c1e2d98bec706a6b3ba5e21cf43f9ecbb80d8adf0e4998e546bc8e155e90ce64736f6c634300060c0033",
  "compiler": {
    "name": "solc",
    "version": "0.6.12+commit.27d51765.Emscripten.clang",
    "optimizer": {
      "enabled": true,
      "runs": 200
    },
    "evmVersion": "petersburg"
  }
}